:020000040800F2
:1000000000000220FD1E0008DD080008DF080008CF
:10001000E1080008E3080008E50800080000000007
:10002000000000000000000000000000E7080008D9
:10003000E908000800000000EB080008ED080008CF
:100040004D1F00084D1F00084D1F00084D1F0008E0
:100050004D1F00084D1F00084D1F00084D1F0008D0
:100060004D1F00084D1F00084D1F00084D1F0008C0
:100070004D1F00084D1F00084D1F00084D1F0008B0
:100080004D1F00084D1F00084D1F00084D1F0008A0
:100090004D1F00084D1F00084D1F00084D1F000890
:1000A000F50800084D1F00084D1F00084D1F0008EF
:1000B0004D1F00084D1F00084D1F00084D1F000870
:1000C0004D1F00084D1F00084D1F00084D1F000860
:1000D0004D1F0008050900084D1F00084D1F0008AE
:1000E0004D1F00084D1F00084D1F00084D1F000840
:1000F0004D1F00084D1F00084D1F00084D1F000830
:100100004D1F00084D1F00084D1F00084D1F00081F
:100110004D1F00084D1F00084D1F00084D1F00080F
:100120004D1F00084D1F00084D1F00084D1F0008FF
:100130004D1F00084D1F00084D1F00084D1F0008EF
:100140004D1F00084D1F00084D1F00084D1F0008DF
:100150004D1F00084D1F00084D1F00084D1F0008CF
:100160004D1F00084D1F00084D1F00084D1F0008BF
:100170004D1F00084D1F00084D1F00080000000023
:080180004D1F00084D1F00088F
:1001900010B5054C237833B9044B13B10448AFF3C1
:1001A00000800123237010BD7000002000000000BB
:1001B000A028000808B5034B1BB103490348AFF35F
:1001C000008008BD0000000074000020A028000886
:1001D00001F0FF01102A2BDB10F0070F08D010F8F8
:1001E000013B013A8B422DD010F0070F42B3F6D1FC
:1001F000F0B441EA012141EA014122F007047FF015
:1002000000070023F0E80256083C85EA010586EA6B
:10021000010685FA47F5A3FA87F586FA47F6A5FAA7
:1002200087F68EB9EED1F0BC01F0FF0102F00702B3
:1002300032B110F8013B013A83EA010313B1F8D15E
:100240000020704701387047002D06BF354603383F
:10025000073815F0010F07D1013015F4807F02BF78
:10026000013015F4C03F0130F0BC0138704700BFC9
:1002700053B94AB9002908BF00281CBF4FF0FF310D
:100280004FF0FF3000F074B9ADF1080C6DE904CE09
:1002900000F006F8DDF804E0DDE9022304B0704761
:1002A0002DE9F047089D04468E46002B4DD18A4229
:1002B000944669D9B2FA82F252B101FA02F3C2F15C
:1002C000200120FA01F10CFA02FC41EA030E9440ED
:1002D0004FEA1C48210CBEFBF8F61FFA8CF708FB0E
:1002E00016E341EA034306FB07F199420AD91CEBE6
:1002F000030306F1FF3080F01F81994240F21C8118
:10030000023E63445B1AA4B2B3FBF8F008FB10335F
:1003100044EA034400FB07F7A7420AD91CEB040494
:1003200000F1FF3380F00A81A74240F20781644464
:10033000023840EA0640E41B00261DB1D4400023E9
:10034000C5E900433146BDE8F0878B4209D9002D4D
:1003500000F0EF800026C5E9000130463146BDE8D7
:10036000F087B3FA83F6002E4AD18B4202D3824241
:1003700000F2F980841A61EB030301209E46002DF0
:10038000E0D0C5E9004EDDE702B9FFDEB2FA82F245
:10039000002A40F09280A1EB0C014FEA1C471FFAA3
:1003A0008CFE0126200CB1FBF7F307FB131140EA8A
:1003B00001410EFB03F0884208D91CEB010103F157
:1003C000FF3802D2884200F2CB804346091AA4B219
:1003D000B1FBF7F007FB101144EA01440EFB00FEED
:1003E000A64508D91CEB040400F1FF3102D2A64552
:1003F00000F2BB800846A4EB0E0440EA03409CE7F1
:10040000C6F12007B34022FA07FC4CEA030C20FA9D
:1004100007F401FA06F31C43F9404FEA1C4900FABD
:1004200006F3B1FBF9F8200C1FFA8CFE09FB18113A
:1004300040EA014108FB0EF0884202FA06F20BD9AD
:100440001CEB010108F1FF3A80F08880884240F2FD
:100450008580A8F102086144091AA4B2B1FBF9F041
:1004600009FB101144EA014100FB0EFE8E4508D93C
:100470001CEB010100F1FF346CD28E456AD90238C1
:10048000614440EA0840A0FB0294A1EB0E01A142A6
:10049000C846A64656D353D05DB1B3EB080261EB14
:1004A0000E0101FA07F722FA06F3F1401F43C5E9EE
:1004B000007100263146BDE8F087C2F12003D84024
:1004C0000CFA02FC21FA03F3914001434FEA1C4766
:1004D0001FFA8CFEB3FBF7F007FB10360B0C43EA58
:1004E000064300FB0EF69E4204FA02F408D91CEB08
:1004F000030300F1FF382FD29E422DD90238634406
:100500009B1B89B2B3FBF7F607FB163341EA0341A5
:1005100006FB0EF38B4208D91CEB010106F1FF38F4
:1005200016D28B4214D9023E6144C91A46EA0046EB
:1005300038E72E46284605E70646E3E61846F8E67D
:100540004B45A9D2B9EB020864EB0C0E0138A3E7C6
:100550004646EAE7204694E74046D1E7D0467BE7A7
:10056000023B614432E7304609E76444023842E71F
:10057000704700BF044B1B685860034B1B681B6827
:1005800013F0800FF9D070475401002010B50446D5
:1005900003E014F8010BFFF7EDFF23782BB10A2BD2
:1005A000F7D10D20FFF7E6FFF3E710BD0FB410B54C
:1005B00082B004AA52F8041B0192064C204601F0B6
:1005C00009FD2046FFF7E2FF02B0BDE8104004B08D
:1005D000704700BF8C00002072B6FEE700B595B0F2
:1005E0003022002108A801F0D7FC002303930493D4
:1005F00005930693079301931F4A116C41F08051B4
:100600001164126C02F080520192019A02931B4A0B
:10061000116841F480411160126802F48042029234
:10062000029A0222089201210B9110210C910E9244
:100630000F930823109340231193129204231393D2
:1006400008A800F01DFC98B90F230393022304931C
:10065000902305934FF4A05306934FF480530793D0
:10066000002103A800F05AFE20B915B05DF804FB84
:10067000FFF7B2FFFFF7B0FF003802400070004004
:1006800008B501F011F9FFF7A9FF00F013F800F029
:100690005BF800F0C9F8054800F088F90448FFF756
:1006A00085FF4FF47A7001F02BF9F7E70C01002079
:1006B000B82800082DE9F04188B000240394049480
:1006C00005940694079401941C4B1A6B42F00102A6
:1006D0001A631A6B02F001020192019A02941A6BDA
:1006E00042F008021A631B6B03F008030293029B9B
:1006F000DFF8508022464FF48051404600F0D6FF8C
:100700000F4D22468021284600F0D0FF4FF4805341
:1007100003930127049702260596069403A94046F1
:1007200000F0D2FE8023039304970596069403A954
:10073000284600F0C9FE08B0BDE8F081003802404C
:10074000000C02400000024000B587B00023029375
:10075000039304930593009301931648164A02608D
:1007600040F23F624260836041F28732C2600361BF
:100770004361836100F084FA90B94FF4805302938F
:1007800002A90C4800F0B5FA68B900230093019360
:100790006946084800F02CFB40B907B05DF804FB3F
:1007A000FFF71AFFE9E7FFF717FFEEE7FFF714FF80
:1007B000F3E700BF0C0100200000014002680E4B6F
:1007C0009A4200D0704700B583B00021019103F533
:1007D0009C335A6C42F001025A645B6C03F00103D3
:1007E0000193019B0A46182000F0DEFF182001F05B
:1007F00013F803B05DF804FB0000014008B502687F
:10080000064B9A4200D008BD4FF48051044800F0D6
:1008100053FF8021034800F04FFFF4E70000014040
:1008200000000240000C024008B50A480A4B036071
:100830004FF4E133436000238360C36003610C2203
:1008400042618361C36101F055F900B908BDFFF74A
:10085000C3FEFBE7540100200010014010B588B032
:10086000002303930493059306930793026803F10F
:10087000804303F588339A4201D008B010BD0024AC
:10088000019403F594335A6C42F010025A645A6C86
:1008900002F010020192019A02941A6B42F00102D6
:1008A0001A631B6B03F001030293029B4FF4C063B6
:1008B000039302230493032306930723079303A9B7
:1008C000054800F001FE22462146252000F06CFF7D
:1008D000252000F0A1FFD0E700000240FEE7FEE780
:1008E000FEE7FEE7FEE770477047704708B500F087
:1008F000F5FF08BD08B5024800F0A0F808BD00BF2C
:100900000C01002008B5024801F0AEF908BD00BF97
:100910005401002082B0002100910B4B5A6C42F42C
:1009200080425A645A6C02F480420092009A01910B
:100930001A6C42F080521A641B6C03F080530193CE
:10094000019B02B0704700BF0038024010B4036A38
:10095000046A24F001040462846924F0F00C4CEA77
:10096000021223F00A030B43826103625DF8044B19
:10097000704710B4046A24F0100404628469036AA6
:1009800024F4704C4CEA023223F0A00343EA011332
:10099000826103625DF8044B7047836823F0700343
:1009A0000B4343F0070383607047000090F83D302D
:1009B000DBB2012B37D1022380F83D300268D368C7
:1009C00043F00103D3600368194A934220D0B3F186
:1009D000804F1DD0A2F57C42934219D002F580626F
:1009E000934215D002F58062934211D002F578420D
:1009F00093420DD002F57052934209D0A2F5943281
:100A0000934205D01A6842F001021A600020704734
:100A10009A6802F00702062A07D01A6842F001021B
:100A20001A6000207047012070470020704700BF07
:100A300000000140704770477047704710B504468A
:100A400003681A6912F0020F11D0DA6812F0020F6F
:100A50000DD06FF002021A610123037703689B69CE
:100A600013F0030F70D0FFF7E6FF0023237723680E
:100A70001A6912F0040F12D0DA6812F0040F0ED0C7
:100A80006FF004021A610223237723689B6913F431
:100A9000407F5FD02046FFF7CEFF002323772368F7
:100AA0001A6912F0080F12D0DA6812F0080F0ED08F
:100AB0006FF008021A61042323772368DB6913F0BF
:100AC000030F4ED02046FFF7B6FF0023237723689D
:100AD0001A6912F0100F12D0DA6812F0100F0ED04F
:100AE0006FF010021A61082323772368DB6913F47F
:100AF000407F3DD02046FFF79EFF002323772368E9
:100B00001A6912F0010F03D0DA6812F0010F36D122
:100B100023681A6912F0800F03D0DA6812F0800F90
:100B200034D123681A6912F0400F03D0DA6812F04A
:100B3000400F32D123681A6912F0200F03D0DA680F
:100B400012F0200F30D110BDFFF774FF2046FFF7E1
:100B500073FF8AE72046FFF76DFF2046FFF76CFF23
:100B60009BE72046FFF766FF2046FFF765FFACE7EF
:100B70002046FFF75FFF2046FFF75EFFBDE76FF0FF
:100B800001021A612046FFF739FEC1E76FF08002CB
:100B90001A61204600F073F9C3E76FF040021A6152
:100BA0002046FFF74AFFC5E76FF020021A61204692
:100BB00000F064F9C7E700000368304A904212D0A1
:100BC000B0F1804F0FD0A2F57C4290420BD002F5DD
:100BD0008062904207D002F58062904203D002F515
:100BE0007842904203D123F070034A681343234AAA
:100BF00090422AD0B0F1804F27D0A2F57C4290429B
:100C000023D002F5806290421FD002F580629042AC
:100C10001BD002F57842904217D002F570529042F4
:100C200013D002F5806290420FD002F580629042AC
:100C30000BD0A2F59832904207D002F58062904224
:100C400003D002F58062904203D123F44073CA6856
:100C5000134323F080034A69134303608B68C36224
:100C60000B688362054B984203D003F5806398427A
:100C700001D10B6903630123436170470000014008
:100C800040B310B5044690F83D30F3B1022384F828
:100C90003D30214651F8040BFFF78EFF012384F805
:100CA000463084F83E3084F83F3084F8403084F891
:100CB000413084F8423084F8433084F8443084F87A
:100CC000453084F83D30002010BD80F83C30FFF7FF
:100CD00075FDDBE70120704710B4846824F47F4C75
:100CE00042EA03220A4342EA0C0282605DF8044BA6
:100CF000704790F83C30012B78D010B504460123A2
:100D000080F83C30022380F83D300268936823F479
:100D10007F4323F0770393600B68602B4CD029D876
:100D2000402B54D00CD9502B22D1CA684968006896
:100D3000FFF70CFE50212068FFF72FFE002005E092
:100D4000202B0DD009D9302B0AD00120012384F8A3
:100D50003D30002384F83C3010BD0BB1102B05D181
:100D600019462068FFF719FE0020EFE70120EDE7A4
:100D70000120EBE7B3F5805F34D0B3F5005F0CD111
:100D8000CB684A6889680068FFF7A6FF2268936805
:100D900043F4804393600020D8E7702B24D1CB68C4
:100DA0004A6889680068FFF797FF2268936843F0F4
:100DB000770393600020C9E7CA6849680068FFF7B5
:100DC000D8FD60212068FFF7E8FD0020BEE7CA6873
:100DD00049680068FFF7BAFD40212068FFF7DDFD94
:100DE0000020B3E70020B1E70120AFE70220704701
:100DF00090F83C30012B3DD010B4012380F83C30FA
:100E0000022380F83D3003685A689C6822F0700C19
:100E10000A6842EA0C025A600368174A93421AD0E1
:100E2000B3F1804F17D0A2F57C42934213D002F564
:100E3000806293420FD002F5806293420BD002F59C
:100E40007842934207D002F57052934203D0A2F544
:100E50009432934204D124F080044A6814439C6085
:100E6000012380F83D30002380F83C3018465DF8BF
:100E7000044B7047022070470000014070477047E4
:100E8000002800F0E08170B582B00446036813F0DA
:100E9000010F3BD09F4B9B6803F00C03042B2CD01D
:100EA0009C4B9B6803F00C03082B21D06368B3F5BF
:100EB000803F4FD0B3F5A02F52D0964B1A6822F442
:100EC00080321A601A6822F480221A606368002B4C
:100ED00050D000F00FFD05468E4B1B6813F4003F09
:100EE00014D100F007FD401B6428F5D90320B1E1BF
:100EF000884B5B6813F4800FD8D0864B1B6813F4C3
:100F0000003F03D06368002B00F09F81236813F03B
:100F1000020F54D07F4B9B6813F00C0F3ED07D4BDB
:100F20009B6803F00C03082B33D0E368002B68D0D8
:100F3000794B01221A6000F0DDFC0546754B1B68F9
:100F400013F0020F54D100F0D5FC401B0228F5D954
:100F500003207FE16F4A136843F480331360B5E7E1
:100F60006C4B1A6842F480221A601A6842F480328C
:100F70001A60ABE700F0BEFC0546664B1B6813F435
:100F8000003FC3D000F0B6FC401B6428F5D9032015
:100F900060E1604B5B6813F4800FC6D15D4B1B684A
:100FA00013F0020F03D0E368012B40F05081594A3F
:100FB000136823F0F803216943EAC103136023682F
:100FC00013F0080F42D063696BB3534B0122C3F88F
:100FD000802E00F08FFC05464E4B5B6F13F0020F26
:100FE00034D100F087FC401B0228F5D9032031E101
:100FF000484A136823F0F803216943EAC1031360E8
:10100000DDE7454B00221A6000F074FC0546414BB9
:101010001B6813F0020FD2D000F06CFC401B0228BA
:10102000F5D9032016E13C4B0022C3F8802E00F0D6
:1010300061FC0546374B5B6F13F0020F06D000F0E2
:1010400059FC401B0228F5D9032003E1236813F063
:10105000040F77D02F4B1B6C13F0805F33D100232C
:1010600001932C4B1A6C42F080521A641B6C03F0F3
:1010700080530193019B0125284B1B6813F4807F4B
:1010800023D0A368012B34D0052B38D0214B1A6F05
:1010900022F001021A671A6F22F004021A67A3688D
:1010A000002B3DD000F026FC06461A4B1B6F13F0B8
:1010B000020F46D100F01EFC801B41F2883398429B
:1010C000F3D90320C6E00025D6E7144A136843F499
:1010D0008073136000F00EFC0646104B1B6813F47F
:1010E000807FCED100F006FC801B0228F5D90320BA
:1010F000B0E0084A136F43F001031367CFE7054BD5
:101100001A6F42F004021A671A6F42F001021A675E
:10111000C5E700BF003802400000474200700040B1
:1011200000F0E8FB0646524B1B6F13F0020F08D08D
:1011300000F0E0FB801B41F288339842F3D9032092
:1011400088E0EDB9A369002B00F08380484A9268DB
:1011500002F00C02082A51D0022B17D0454B002276
:101160001A6600F0C7FB0446414B1B6813F0007F72
:1011700042D000F0BFFB001B0228F5D9032069E034
:101180003B4A136C23F080531364DBE7394B002296
:101190001A6600F0AFFB0546354B1B6813F0007F65
:1011A00006D000F0A7FB401B0228F5D9032051E030
:1011B000E369226A1343626A43EA8213A26A52080D
:1011C000013A43EA0243E26A43EA0263284A53606F
:1011D000284B01221A6600F08DFB0446244B1B6845
:1011E00013F0007F06D100F085FB001B0228F5D923
:1011F00003202FE000202DE000202BE0012B2BD03E
:101200001B4B5B6803F48001E269914226D103F035
:101210003F02216A8A4223D1616A47F6C0721A40AE
:10122000B2EB811F1ED103F44031A26A5208013A89
:10123000B1EB024F18D103F07063E26AB3EB026FB7
:1012400014D1002006E001207047012002E00120B7
:1012500000E0002002B070BD0120FBE70120F9E7AB
:101260000120F7E70120F5E70120F3E70120F1E78E
:10127000003802400000474208B5254B9B6803F048
:101280000C03042B3FD0082B3FD1214B5A6802F0AE
:101290003F025B6813F4800F12D01D4B5968C1F3F5
:1012A00088111C480023A1FB0001FEF7E1FF184B49
:1012B0005B68C3F3014301335B00B0FBF3F025E04F
:1012C000134B5968C1F3881C4FEA4C11B1EB0C0069
:1012D0006EEB0E0E4FEA8E1343EA90638101091AFA
:1012E00063EB0E03DB0043EA5173C90011EB0C0CF6
:1012F00043F10003990200234FEA8C2041EA9C51FC
:10130000FEF7B6FFD3E7034800E0034808BD00BF7F
:101310000038024040787D010024F400002800F0ED
:101320009B8070B50D4604464F4B1B6803F00703C6
:101330008B4208D2CBB24C4A1370136803F00703F8
:101340008B4240F08B80236813F0020F17D013F00C
:10135000040F04D0454A936843F4E0539360236834
:1013600013F0080F04D0414A936843F4604393603C
:101370003E4A936823F0F003A1680B43936023680F
:1013800013F0010F32D06368012B21D09A1E012A7D
:1013900025D9364A126812F0020F61D033498A68A3
:1013A00022F0030213438B6000F0A4FA06462F4B91
:1013B0009B6803F00C036268B3EB820F16D000F059
:1013C00099FA801B41F288339842F0D9032042E019
:1013D000264A126812F4003FE0D101203BE0234A84
:1013E000126812F0007FD9D1012034E01E4B1B6837
:1013F00003F00703AB4207D9EAB21B4B1A701B6814
:1014000003F00703AB422DD1236813F0040F06D07D
:10141000164A936823F4E053E1680B439360236812
:1014200013F0080F07D0114A936823F46043216931
:1014300043EAC1039360FFF71FFF0C4B9B68C3F3A4
:1014400003130B4AD35CD8400A4B18600A4B186848
:1014500000F004FA002070BD012070470120FAE777
:101460000120F8E70120F6E7003C02400038024086
:10147000C02800080800002004000020014B186864
:10148000704700BF0800002008B5FFF7F7FF044BC6
:101490009B68C3F38223034AD35CD84008BD00BFD6
:1014A00000380240D028000808B5FFF7E7FF044BDA
:1014B0009B68C3F34233034AD35CD84008BD00BFE6
:1014C00000380240D028000800230F2B00F2E480EF
:1014D00070B582B060E085685E000324B44025EA00
:1014E0000405CC68B4402C438460456825EA0205B5
:1014F0004C68C4F300129A402A4342605AE0DC0868
:10150000083450F8246003F0070295000F22AA4027
:1015100026EA020E0A69AA4042EA0E0240F8242096
:101520005CE0072200E0002202FA0EF22A430234B5
:101530005A4D45F824205A4A14686FEA0C0224EAEE
:101540000C054E6816F4803F01D04CEA0405544C5B
:101550002560646802EA04054E6816F4003F01D075
:101560004CEA04054E4C6560A46802EA04054E6826
:1015700016F4801F01D04CEA0405494CA560E468CC
:1015800022404D6815F4001F01D04CEA0402444C7F
:10159000E26001330F2B7DD801229A400C6804EAE7
:1015A000020C32EA0404F4D14C6804F00304013C58
:1015B000012C90D94A6802F00302032A09D0C468BA
:1015C0005D000322AA4024EA02048A68AA4022435A
:1015D000C2604A6802F00302022A90D004684FEA0F
:1015E000430E032202FA0EF224EA02044A6802F0D1
:1015F000030202FA0EF2224302604A6812F4403FEC
:10160000C7D000220192274A546C44F480445464A9
:10161000526C02F480420192019A9C08A51C1F4A58
:1016200052F8255003F003024FEA820E0F2202FA0D
:101630000EF225EA02051C4A90423FF474AF02F50F
:10164000806290421AD002F58062904218D002F572
:101650008062904216D002F58062904214D002F56A
:101660008062904212D002F58062904210D002F562
:10167000806290423FF455AF082255E7012253E7BC
:10168000022251E703224FE704224DE705224BE7F0
:10169000062249E702B070BD704700BF0038014024
:1016A000003C014000380240000002400AB1816164
:1016B0007047090481617047436901EA030221EA26
:1016C000030141EA02418161704770B50446866DAD
:1016D00000F010F994F83530DBB2022B06D08023ED
:1016E0006365002384F83430012070BD054622680C
:1016F000136823F0160313602268536923F08003F4
:101700005361236CE3B12268136823F0080313606C
:101710002268136823F00103136023681B6813F029
:10172000010F11D000F0E6F8431B052BF5D920235B
:101730006365032084F83500002384F83430D4E74F
:10174000A36C002BDFD1E3E7E26D3F239340B3604E
:10175000012384F83530002084F83400C5E790F880
:101760003530DBB2022B03D0802343650120704764
:10177000052380F835300268136823F001031360F5
:1017800000207047074AD36823F4E0631B041B0C56
:10179000000200F4E060034343F0BF6343F400330E
:1017A000D360704700ED00E000B5194BDB68C3F370
:1017B0000223C3F1070CBCF1040F28BF4FF0040C47
:1017C00003F1040EBEF1060F18D9033B4FF0FF3EA4
:1017D0000EFA0CFC21EA0C0199400EFA03F322EAFE
:1017E0000303194300280BDB0901C9B200F1604073
:1017F00000F5614080F800135DF804FB0023E5E785
:1018000000F00F000901C9B2024B1954F4E700BF00
:1018100000ED00E014ED00E0002807DB00F01F02FF
:10182000400901239340024A42F82030704700BF2C
:1018300000E100E00138B0F1807F0BD24FF0E023EF
:101840005861054AF02182F8231000209861072290
:101850001A6170470120704700ED00E010B50446A2
:101860000E4B18784FF47A73B3FBF0F30C4A106800
:10187000B0FBF3F0FFF7DEFF68B90F2C01D90120B0
:101880000AE0002221464FF0FF30FFF78DFF054BA5
:101890001C60002000E0012010BD00BF00000020FF
:1018A000080000200400002008B50B4B1A6842F421
:1018B00000721A601A6842F480621A601A6842F470
:1018C00080721A600320FFF75DFF0F20FFF7C6FF4D
:1018D000FFF720F8002008BD003C0240034A1168D1
:1018E000034B1B780B441360704700BF9801002026
:1018F00000000020014B1868704700BF98010020CD
:1019000038B50446FFF7F6FF0546B4F1FF3F02D0B5
:10191000044B1B781C44FFF7EDFF401BA042FAD399
:1019200038BD00BF00000020026802F10C0353E83C
:10193000003F23F490730C3242E800310029F3D1C8
:10194000026802F1140353E8003F23F0010314324C
:1019500042E800310029F3D1036B012B05D020238D
:1019600080F83E30002303637047026802F10C03E5
:1019700053E8003F23F010030C3242E80031002905
:10198000F3D1ECE790F83D30DBB2212B01D00220FF
:1019900070478368B3F5805F17D0036A5A1C0262F0
:1019A0001A7803685A60C38C9BB2013B9BB2C38414
:1019B0004BB90268D36823F08003D3600268D36810
:1019C00043F04003D360002070470369002BE4D14B
:1019D000036A1B880268C3F308035360036A023377
:1019E0000362E0E738B504460268136923F4405304
:1019F000C1680B431361836802691343426913434F
:101A0000C2691A430168CB6823F4164323F00C0320
:101A10001343CB600268536923F4407381690B431D
:101A200053610368314A934206D002F580629342C3
:101A300002D0FFF729FD01E0FFF736FDE369B3F5BA
:101A4000004F29D00021031849411B1841F1000122
:101A5000C90041EA5371DB00181863684FEA83023A
:101A60004FEA937341F10001FEF702FC204DA5FB04
:101A700000325109642303FB11031B013233A5FB20
:101A800003235B0903F0F00202EB011203F00F03E2
:101A9000216813448B6038BD0023021843EB030117
:101AA000121841F10001C90041EA5271D200101828
:101AB00041F10001626892185B41FEF7D9FB0C4DC1
:101AC000A5FB00325109642303FB1103DB00323311
:101AD000A5FB03235B095A0002F4F87202EB011222
:101AE00003F00703216813448B60D4E70010014022
:101AF0001F85EB5158B310B5044690F83D300BB339
:101B0000242384F83D302268D36823F40053D36043
:101B10002046FFF767FF2268136923F4904313619F
:101B20002268536923F02A0353612268D36843F47F
:101B30000053D36000202064202384F83D3084F8D3
:101B40003E3010BD80F83C30FEF788FED8E701201B
:101B50007047704708B50168CA6822F04002CA6041
:101B6000202280F83D20FFF7F4FF002008BD7047D9
:101B7000704708B5806B0023C385C384FFF7F8FF67
:101B800008BD704790F83E30DBB2222B67D18368E6
:101B9000B3F5805F4DD0826AB3F5805F04D0002B2F
:101BA00054D10369002B51D103685B681370836AB9
:101BB00001338362C38D9BB2013B9BB2C385002B73
:101BC0004FD100B583B00268D36823F02003D360FF
:101BD0000268D36823F48073D3600268536923F0EA
:101BE00001035361202380F83E30036B012B33D176
:101BF00000230363026802F10C0353E8003F23F063
:101C000010030C3242E800310029F3D103681A684E
:101C100012F0100F06D0002201921A6801925B6840
:101C20000193019B818DFFF7ACFF002003B05DF8AD
:101C300004FB0269002AAED1826A03685B68C3F3C1
:101C400008031380836A02338362B3E703685B6827
:101C500003F07F031370AAE7FFF789FFE5E702208F
:101C6000704700207047000030B583B0044602681A
:101C70001368D068516913F00F0505D113F0200FD8
:101C800002D010F0200F19D12DB111F0010119D19E
:101C900010F4907F16D1216B01297DD013F0800FB5
:101CA00003D010F0800F40F0158113F0400F03D0E7
:101CB00010F0400F40F0128103B030BD2046FFF716
:101CC00061FFF9E713F0010F06D010F4807F03D015
:101CD000226C42F00102226413F0040F04D019B107
:101CE000226C42F00202226413F0020F04D019B1F8
:101CF000226C42F00402226413F0080F07D010F0A7
:101D0000200F00D119B1226C42F008022264226C2B
:101D1000002AD1D013F0200F02D010F0200F29D1CB
:101D200023685B6903F04003226C12F0080F00D1B6
:101D300063B32046FFF7F8FD23685B6913F0400F9B
:101D400020D0226802F1140353E8003F23F040033F
:101D5000143242E800310029F3D1A36B73B1614A18
:101D60001A65A06BFFF7FBFC0028A5D0A06B036DE4
:101D70009847A1E72046FFF705FFD1E72046FFF788
:101D8000F7FE99E72046FFF7F3FE95E72046FFF7B9
:101D9000EFFE002323648FE713F0100F3FF47EAFB4
:101DA00010F0100F3FF47AAF0023019313680193F2
:101DB00053680193019B536913F0400F50D0A26BFD
:101DC00013685B689BB2002B3FF476AFA18D9942FC
:101DD0007FF672AFE385D369B3F5807F37D0226891
:101DE00002F10C0353E8003F23F480730C3242E805
:101DF00000310029F3D1226802F1140353E8003FB7
:101E000023F00103143242E800310029F3D12268A3
:101E100002F1140353E8003F23F04003143242E878
:101E200000310029F3D1202384F83E3000232363BE
:101E3000226802F10C0353E8003F23F010030C3238
:101E400042E800310029F3D1A06BFFF73EFCA18DE1
:101E5000E38D9BB2C91A89B22046FFF792FE2BE7A9
:101E6000A18DE38D9BB2C91A89B2E38D9BB2002B81
:101E70003FF422AF00293FF41FAF226802F10C03A8
:101E800053E8003F23F490730C3242E800300028FE
:101E9000F3D1226802F1140353E8003F23F0010359
:101EA000143242E800300028F3D1202384F83E3079
:101EB00000232363226802F10C0353E8003F23F060
:101EC00010030C3242E800300028F3D12046FFF71F
:101ED00058FEF1E62046FFF755FDEDE62046FFF7F8
:101EE00039FEE9E6731B0008034AD2F8883043F450
:101EF0007003C2F88830704700ED00E0DFF834D09E
:101F00000D480E490E4A002302E0D458C450043351
:101F1000C4188C42F9D30B4A0B4C002301E0136028
:101F20000432A242FBD3FFF7DFFF00F011F8FEF707
:101F3000A7FB704700000220000000207000002076
:101F40001C29000870000020B0010020FEE70000FE
:101F500070B50D4D0D4C641BA4100026A64209D18E
:101F60000B4D0C4C00F09CFC641BA4100026A642F8
:101F700005D170BD55F8043B98470136EEE755F89A
:101F8000043B98470136F2E7142900081429000899
:101F9000142900081829000802440346934200D17E
:101FA000704703F8011BF9E700B59BB0009104915D
:101FB0006FF000410591029105490391694600F0D7
:101FC0006FF8009B00221A701BB05DF804FB00BF85
:101FD0000802FFFF13460A46014602480068FFF761
:101FE000E3BF00BF0C0000202DE9F0478E689E4241
:101FF00082460C4690461F4638D88A8912F4906F64
:1020000032D025680969A5EB0109656905EB45052D
:1020100005EBD57501334B446D109D4238BF1D460D
:10202000530531D5294600F063FB064650B90C2311
:10203000CAF80030A38943F04003A3814FF0FF307A
:10204000BDE8F08721694A4600F0BEFAA38923F46F
:10205000906343F08003A381266165614E44A5EB44
:1020600009052660A5603E46BE4200D93E4620686E
:102070003246414600F0B6FAA3689B1BA360236872
:10208000334423600020DBE72A4600F0A5FB064628
:102090000028E1D12169504600F0BEFAC7E70000F0
:1020A0002DE9F04F98468B891B069DB007460D46DB
:1020B00014460ED50B6963B9402100F019FB286066
:1020C000286120B90C233B604FF0FF30D1E0402362
:1020D0006B610023099320238DF82930CDF80C8003
:1020E0003023DFF8A8818DF82A304FF0010923460C
:1020F0009A4613F8012B0AB1252AF9D1BAEB040B41
:102100000BD05B46224629463846FFF76DFF01306B
:1021100000F0AA80099A5A4409929AF80030002BDC
:1021200000F0A28000234FF0FF32CDE905230AF131
:10213000010A049307938DF853301A9354460522ED
:1021400014F8011B5148FEF743F8049AD8B9D00699
:1021500044BF20238DF85330110744BF2B238DF843
:1021600053309AF800302A2B15D0079A5446002095
:102170004FF00A0C214611F8013B303B092B4ED998
:10218000B0B1079214E0A0EB080309FA03F313437C
:102190000493A246D2E7039B191D1B680391002BF1
:1021A000BBBF5B4242F0020207930793B8BF0492A1
:1021B00023782E2B0CD163782A2B35D1039B1A1D43
:1021C0001B680392002BB8BF4FF0FF330234059316
:1021D000DFF8C8A0217803225046FDF7F9FF40B18F
:1021E0004023A0EB0A0003FA00F0049B03430134F0
:1021F000049314F8011B26488DF828100622FDF7D9
:10220000E7FF002838D0234B1BBB039B073323F089
:10221000070308330393099B3344099367E70CFBD7
:1022200002320C460120A5E700230134059319462C
:102230004FF00A0C204610F8012B303A092A03D936
:10224000002BC5D00591C3E70CFB012104460123F7
:10225000F0E703AB00932A460F4B04A93846AFF3CF
:102260000080421C0646D6D1AB895B063FF52CAFF9
:1022700009981DB0BDE8F08F03AB00932A46064BCA
:1022800004A9384600F07AF8EBE700BFD828000828
:10229000E228000800000000E91F0008DE2800080E
:1022A0002DE9F047164699468A680B69DDF82080CB
:1022B0009342B8BF1346336091F8432007460C465B
:1022C0000AB1013333602368990642BF3368023391
:1022D0003360256815F0060506D104F1190AE36894
:1022E00032689B1AAB4226DC94F84320131E226806
:1022F00018BF012392062BD404F143024946384605
:10230000C04701301ED02368E568326803F0060339
:10231000042B08BFAD1AA36822690CBF25EAE57536
:1023200000259342C4BF9B1AED1800261A34B5420B
:102330001AD1002008E00123524649463846C047DA
:10234000013003D14FF0FF30BDE8F0870135C6E71B
:10235000E1185A1C302081F84300224494F84510BB
:1023600082F843100233C7E7012322464946384624
:10237000C0470130E6D00136D9E700002DE9FF471C
:102380000F7E0C9D782F914680460C469A4601F1AF
:10239000430207D8622F0AD8002F00F0D880582FA8
:1023A00000F0A38004F1420584F842703AE0A7F1FE
:1023B0006303152BF6D801A151F823F0152400086A
:1023C00029240008A5230008A5230008A523000848
:1023D000A523000829240008A5230008A523000838
:1023E000A5230008A5230008352500085924000866
:1023F00017250008A5230008A52300085725000875
:10240000A523000859240008A5230008A5230008D7
:102410001F2500082B681A1D1B682A6004F142055D
:1024200084F842300123A3E020682968060601F100
:1024300004030AD50E682B60002E03DA2D237642A2
:1024400084F843305E480A2319E00E682B6010F0D0
:10245000400F18BF36B2EFE72B682068191D2960BE
:10246000010601D51E6802E04606FBD51E885448C9
:102470006F2F0CBF08230A23002184F843106568DE
:10248000A560002DA2BF216821F0040121600EB9D2
:10249000002D4DD01546B6FBF3F103FB1167C75D68
:1024A00005F8017D3746BB420E46F4D9082B0BD107
:1024B0002368DE0708D5236961689942DEBF3023AF
:1024C00005F8013C05F1FF35521B2261CDF800A053
:1024D0004B4603AA21464046FFF7E2FE01304CD1AD
:1024E0004FF0FF3004B0BDE8F087354881F8457003
:1024F0002968236851F8046B29601D0614D5DF078D
:1025000044BF43F0200323601EB9236823F0200357
:1025100023601023B0E7236843F02003236078236F
:10252000284884F84530E3E7590648BFB6B2E6E7E5
:102530001546BBE72B6826686169181D28603506BB
:102540001B6801D5196002E07006FBD519800023D5
:1025500023611546BAE72B681A1D2A601D68626858
:1025600000212846FDF734FE08B1401B6060636817
:102570002361002384F84330A8E723692A464946AB
:102580004046D0470130ABD023689B0713D4E068A6
:10259000039B9842B8BF1846A4E701233246494638
:1025A0004046D04701309BD00135E36803995B1A60
:1025B000AB42F2DCEBE7002504F11906F5E700BFBA
:1025C000E9280008FA2800080A44914200F1FF3384
:1025D00000D1704710B511F8014B03F8014F91423B
:1025E000F9D110BD884210B501EB020402D9844232
:1025F000234607D8431EA14208D011F8012B03F847
:10260000012FF8E7024401468A4200D110BD13F8B9
:10261000014D02F8014DF7E737B5002944D051F8D4
:10262000043C0190002BA1F10404B8BFE41800F0B1
:1026300013F91E4A0198136833B96360146003B03C
:10264000BDE8304000F00EB9A34208D925686119F1
:102650008B4201BF19685B6849192160EDE71A4692
:102660005B680BB1A342FAD911685518A5420BD18A
:10267000246821445418A3421160E0D11C685B68AF
:10268000536021441160DAE702D90C230360D6E7D6
:10269000256861198B4204BF19685B68636004BFD9
:1026A000491921605460CAE703B030BD9C01002085
:1026B00070B50E4E0C463168054611B900F0BCF8F5
:1026C00030602146284600F0B7F8431C0AD0C41CED
:1026D00024F00304A04207D0211A284600F0ACF8E9
:1026E000013001D14FF0FF34204670BDA001002021
:1026F0002DE9F041CD1C25F0030508350C2D38BF20
:102700000C25002D074601DBA94205D90C233B60AF
:1027100000263046BDE8F0812E4E00F09DF833686B
:102720001C4634BB29463846FFF7C2FF431C04460B
:102730004DD134682646002E40D1236831463846B4
:1027400004EB030800F078F880453AD1216803359E
:102750006D1A25F0030508350C2D38BF0C252946C8
:102760003846FFF7A5FF01302BD023682B442360A8
:102770000EE02268521B1ED40B2A16D96119A342FF
:10278000256018BF5960636808BF316062514B60B3
:10279000384604F10B0600F065F826F00706231D05
:1027A000F21AB6D09B1BA350B3E76268A3420CBFDA
:1027B00032605A60ECE723466468B2E734467668D4
:1027C000B9E70C233B60384600F04CF8A1E72560E0
:1027D000DEE700BF9C0100202DE9F0418046144651
:1027E0000E4621B9BDE8F0411146FFF781BF2AB975
:1027F000FFF712FF25462846BDE8F08100F038F8C3
:102800008442074602D8B4EB500F12D82146404606
:10281000FFF76EFF05460028EDD0BC422246314648
:1028200028BF3A46FFF7D0FE31464046FFF7F4FE98
:10283000E1E73546DFE7000038B5064D00230446E2
:1028400008462B6000F01EF8431C02D12B6803B130
:10285000236038BDA4010020014800F011B800BF7A
:10286000A8010020014800F00CB800BFA80100201A
:1028700051F8043C181F002BBCBF0B58C018704700
:1028800070477047044A05491368002B08BF0B4680
:102890001844106018467047AC010020B0010020B9
:1028A000F8B500BFF8BC08BC9E467047F8B500BF3D
:0828B000F8BC08BC9E4670470D
:1028B80048454C4C4F0A0000000000000000000092
:1028C80001020304060708090000000001020304CE
:1028D800232D302B2000686C4C0065666745464701
:1028E8000030313233343536373839414243444584
:1028F80046003031323334353637383961626364F3
:042908006566000000
:08290C0094D9FF7F01000000D7
:04291400B501000801
:042918009101000821
:10291C0001000000100000000024F4001000002052
:10292C00000000000000000000000000000000009B
:10293C00000000000000000000000000000000008B
:10294C00000000000000000000000000000000007B
:10295C00000000000000000000000000000000006B
:10296C00000000000000000000000000000000005B
:10297C00000000000000000000000000000000004B
:0400000508001EFDD4
:00000001FF
